{
  "_format": "hh-sol-artifact-1",
  "contractName": "DAppDrive",
  "sourceName": "contracts/DAppDrive.sol",
  "abi": [
    {
      "inputs": [],
      "stateMutability": "nonpayable",
      "type": "constructor"
    },
    {
      "inputs": [],
      "name": "counter",
      "outputs": [
        {
          "internalType": "uint256",
          "name": "",
          "type": "uint256"
        }
      ],
      "stateMutability": "view",
      "type": "function"
    },
    {
      "inputs": [
        {
          "internalType": "uint256",
          "name": "_index",
          "type": "uint256"
        }
      ],
      "name": "getDriver",
      "outputs": [
        {
          "components": [
            {
              "internalType": "uint256",
              "name": "id",
              "type": "uint256"
            },
            {
              "internalType": "address",
              "name": "walletAddress",
              "type": "address"
            },
            {
              "internalType": "string",
              "name": "name",
              "type": "string"
            },
            {
              "internalType": "uint256",
              "name": "age",
              "type": "uint256"
            },
            {
              "internalType": "uint256",
              "name": "cardNo",
              "type": "uint256"
            },
            {
              "internalType": "string",
              "name": "image",
              "type": "string"
            }
          ],
          "internalType": "struct DAppDrive.Driver",
          "name": "",
          "type": "tuple"
        }
      ],
      "stateMutability": "view",
      "type": "function"
    },
    {
      "inputs": [
        {
          "internalType": "address",
          "name": "_walletAddress",
          "type": "address"
        },
        {
          "internalType": "string",
          "name": "_name",
          "type": "string"
        },
        {
          "internalType": "uint256",
          "name": "_age",
          "type": "uint256"
        },
        {
          "internalType": "uint256",
          "name": "_cardNo",
          "type": "uint256"
        },
        {
          "internalType": "string",
          "name": "_image",
          "type": "string"
        }
      ],
      "name": "setDriver",
      "outputs": [],
      "stateMutability": "nonpayable",
      "type": "function"
    }
  ],
  "bytecode": "0x60806040523480156200001157600080fd5b506040518060c00160405280600054815260200173f39fd6e51aad88f6f4ce6ab8827279cfffb9226673ffffffffffffffffffffffffffffffffffffffff1681526020016040518060400160405280600a81526020017f496d72616e204b68616e00000000000000000000000000000000000000000000815250815260200160178152602001650192d2aab7a981526020016040518060800160405280605a815260200162001086605a9139815250600160008081526020019081526020016000206000820151816000015560208201518160010160006101000a81548173ffffffffffffffffffffffffffffffffffffffff021916908373ffffffffffffffffffffffffffffffffffffffff16021790555060408201518160020190816200013b9190620003eb565b50606082015181600301556080820151816004015560a0820151816005019081620001679190620003eb565b50905050620004d2565b600081519050919050565b7f4e487b7100000000000000000000000000000000000000000000000000000000600052604160045260246000fd5b7f4e487b7100000000000000000000000000000000000000000000000000000000600052602260045260246000fd5b60006002820490506001821680620001f357607f821691505b602082108103620002095762000208620001ab565b5b50919050565b60008190508160005260206000209050919050565b60006020601f8301049050919050565b600082821b905092915050565b600060088302620002737fffffffffffffffffffffffffffffffffffffffffffffffffffffffffffffffff8262000234565b6200027f868362000234565b95508019841693508086168417925050509392505050565b6000819050919050565b6000819050919050565b6000620002cc620002c6620002c08462000297565b620002a1565b62000297565b9050919050565b6000819050919050565b620002e883620002ab565b62000300620002f782620002d3565b84845462000241565b825550505050565b600090565b6200031762000308565b62000324818484620002dd565b505050565b5b818110156200034c57620003406000826200030d565b6001810190506200032a565b5050565b601f8211156200039b5762000365816200020f565b620003708462000224565b8101602085101562000380578190505b620003986200038f8562000224565b83018262000329565b50505b505050565b600082821c905092915050565b6000620003c060001984600802620003a0565b1980831691505092915050565b6000620003db8383620003ad565b9150826002028217905092915050565b620003f68262000171565b67ffffffffffffffff8111156200041257620004116200017c565b5b6200041e8254620001da565b6200042b82828562000350565b600060209050601f8311600181146200046357600084156200044e578287015190505b6200045a8582620003cd565b865550620004ca565b601f19841662000473866200020f565b60005b828110156200049d5784890151825560018201915060208501945060208101905062000476565b86831015620004bd5784890151620004b9601f891682620003ad565b8355505b6001600288020188555050505b505050505050565b610ba480620004e26000396000f3fe608060405234801561001057600080fd5b50600436106100415760003560e01c80632290b1911461004657806361bc221a14610076578063cece361a14610094575b600080fd5b610060600480360381019061005b919061041c565b6100b0565b60405161006d91906105b9565b60405180910390f35b61007e610275565b60405161008b91906105ea565b60405180910390f35b6100ae60048036038101906100a99190610766565b61027b565b005b6100b8610386565b600160008381526020019081526020016000206040518060c0016040529081600082015481526020016001820160009054906101000a900473ffffffffffffffffffffffffffffffffffffffff1673ffffffffffffffffffffffffffffffffffffffff1673ffffffffffffffffffffffffffffffffffffffff16815260200160028201805461014690610848565b80601f016020809104026020016040519081016040528092919081815260200182805461017290610848565b80156101bf5780601f10610194576101008083540402835291602001916101bf565b820191906000526020600020905b8154815290600101906020018083116101a257829003601f168201915b5050505050815260200160038201548152602001600482015481526020016005820180546101ec90610848565b80601f016020809104026020016040519081016040528092919081815260200182805461021890610848565b80156102655780601f1061023a57610100808354040283529160200191610265565b820191906000526020600020905b81548152906001019060200180831161024857829003601f168201915b5050505050815250509050919050565b60005481565b60008081548092919061028d906108a8565b91905055506040518060c0016040528060005481526020018673ffffffffffffffffffffffffffffffffffffffff1681526020018581526020018481526020018381526020018281525060016000805481526020019081526020016000206000820151816000015560208201518160010160006101000a81548173ffffffffffffffffffffffffffffffffffffffff021916908373ffffffffffffffffffffffffffffffffffffffff16021790555060408201518160020190816103519190610a9c565b50606082015181600301556080820151816004015560a082015181600501908161037b9190610a9c565b509050505050505050565b6040518060c0016040528060008152602001600073ffffffffffffffffffffffffffffffffffffffff168152602001606081526020016000815260200160008152602001606081525090565b6000604051905090565b600080fd5b600080fd5b6000819050919050565b6103f9816103e6565b811461040457600080fd5b50565b600081359050610416816103f0565b92915050565b600060208284031215610432576104316103dc565b5b600061044084828501610407565b91505092915050565b610452816103e6565b82525050565b600073ffffffffffffffffffffffffffffffffffffffff82169050919050565b600061048382610458565b9050919050565b61049381610478565b82525050565b600081519050919050565b600082825260208201905092915050565b60005b838110156104d35780820151818401526020810190506104b8565b60008484015250505050565b6000601f19601f8301169050919050565b60006104fb82610499565b61050581856104a4565b93506105158185602086016104b5565b61051e816104df565b840191505092915050565b600060c0830160008301516105416000860182610449565b506020830151610554602086018261048a565b506040830151848203604086015261056c82826104f0565b91505060608301516105816060860182610449565b5060808301516105946080860182610449565b5060a083015184820360a08601526105ac82826104f0565b9150508091505092915050565b600060208201905081810360008301526105d38184610529565b905092915050565b6105e4816103e6565b82525050565b60006020820190506105ff60008301846105db565b92915050565b61060e81610478565b811461061957600080fd5b50565b60008135905061062b81610605565b92915050565b600080fd5b600080fd5b7f4e487b7100000000000000000000000000000000000000000000000000000000600052604160045260246000fd5b610673826104df565b810181811067ffffffffffffffff821117156106925761069161063b565b5b80604052505050565b60006106a56103d2565b90506106b1828261066a565b919050565b600067ffffffffffffffff8211156106d1576106d061063b565b5b6106da826104df565b9050602081019050919050565b82818337600083830152505050565b6000610709610704846106b6565b61069b565b90508281526020810184848401111561072557610724610636565b5b6107308482856106e7565b509392505050565b600082601f83011261074d5761074c610631565b5b813561075d8482602086016106f6565b91505092915050565b600080600080600060a08688031215610782576107816103dc565b5b60006107908882890161061c565b955050602086013567ffffffffffffffff8111156107b1576107b06103e1565b5b6107bd88828901610738565b94505060406107ce88828901610407565b93505060606107df88828901610407565b925050608086013567ffffffffffffffff811115610800576107ff6103e1565b5b61080c88828901610738565b9150509295509295909350565b7f4e487b7100000000000000000000000000000000000000000000000000000000600052602260045260246000fd5b6000600282049050600182168061086057607f821691505b60208210810361087357610872610819565b5b50919050565b7f4e487b7100000000000000000000000000000000000000000000000000000000600052601160045260246000fd5b60006108b3826103e6565b91507fffffffffffffffffffffffffffffffffffffffffffffffffffffffffffffffff82036108e5576108e4610879565b5b600182019050919050565b60008190508160005260206000209050919050565b60006020601f8301049050919050565b600082821b905092915050565b6000600883026109527fffffffffffffffffffffffffffffffffffffffffffffffffffffffffffffffff82610915565b61095c8683610915565b95508019841693508086168417925050509392505050565b6000819050919050565b600061099961099461098f846103e6565b610974565b6103e6565b9050919050565b6000819050919050565b6109b38361097e565b6109c76109bf826109a0565b848454610922565b825550505050565b600090565b6109dc6109cf565b6109e78184846109aa565b505050565b5b81811015610a0b57610a006000826109d4565b6001810190506109ed565b5050565b601f821115610a5057610a21816108f0565b610a2a84610905565b81016020851015610a39578190505b610a4d610a4585610905565b8301826109ec565b50505b505050565b600082821c905092915050565b6000610a7360001984600802610a55565b1980831691505092915050565b6000610a8c8383610a62565b9150826002028217905092915050565b610aa582610499565b67ffffffffffffffff811115610abe57610abd61063b565b5b610ac88254610848565b610ad3828285610a0f565b600060209050601f831160018114610b065760008415610af4578287015190505b610afe8582610a80565b865550610b66565b601f198416610b14866108f0565b60005b82811015610b3c57848901518255600182019150602085019450602081019050610b17565b86831015610b595784890151610b55601f891682610a62565b8355505b6001600288020188555050505b50505050505056fea264697066735822122064c6984127a68ae0ad152e2b0d17946365e6e02d4f5fe5f469e355bff137035b64736f6c6343000812003368747470733a2f2f697066732d322e746869726477656263646e2e636f6d2f697066732f516d5935484147534c5a67646b516548703835476b79735546316b77585755326d7a7974717145617744516b68772f6e65772e6a7067",
  "linkReferences": {},
  "deployedLinkReferences": {}
}